:100000000C942A000C9447000C9447000C94470071
:100010000C9447000C9447000C9447000C94470044
:100020000C9447000C9447000C94A70B0C944700C9
:100030000C9447000C9447000C9447000C94470024
:100040000C9447000C9447000C9447000C94470014
:100050000C94470011241FBECFE5D8E0DEBFCDBF12
:1000600012E0A0E6B0E0E2EEFFE102C005900D92E2
:10007000A236B107D9F712E0A2E6B2E001C01D92A4
:10008000A73FB107E1F70E946A070C94EF0F0C94A9
:100090000000EF92FF920F931F937B018C0120E0F1
:1000A00030E040E05FE40E94C50388238CF0C80183
:1000B000B70120E030E040E05FE40E94C1010E940F
:1000C000F5039B01AC01205030404040504806C031
:1000D000C801B7010E94F5039B01AC01B901CA0137
:1000E0001F910F91FF90EF900895A0E0B0E0EBE733
:1000F000F0E00C94B20DDC012B01FA019C919230DE
:1001000008F439C1EB018881823008F433C194309E
:1001100069F4843009F02FC111969C91119789815F
:10012000981709F428C1AAE5B1E025C1843009F483
:1001300021C18230A9F4923009F01DC19A01AD01AC
:1001400088E0EA010990AE01E90109929E0181501F
:10015000C1F7E201898111969C918923818308C1AD
:10016000923009F407C112962D903C901397EB0141
:100170008A819B811496AD90BD90CD90DC901797AD
:10018000EC80FD800E811F819101281B390BB90184
:1001900037FF04C066277727621B730B6032710537
:1001A0000CF061C0121613066CF537014801062EDB
:1001B00004C096948794779467940A94D2F721E0C8
:1001C00030E040E050E004C0220F331F441F551FB1
:1001D0006A95D2F721503040404050402E213F21B7
:1001E00040235123211531054105510521F021E01E
:1001F00030E040E050E079018A01E628F72808293C
:1002000019293CC0232BD1F1260E371E350146019A
:10021000062E04C096948794779467940A94D2F734
:1002200021E030E040E050E004C0220F331F441FC3
:10023000551F6A95D2F721503040404050402A2146
:100240003B214C215D21211531054105510521F04E
:1002500021E030E040E050E059016A01A628B728CB
:10026000C828D9280BC0821593052CF01C01AA249C
:10027000BB24650103C0EE24FF24870111969C91E5
:10028000D20111968C91981709F445C0992339F041
:10029000A80197012A193B094C095D0906C0A6016E
:1002A00095012E193F09400B510B57FD08C01182D3
:1002B0003382228224833583468357831DC081E0A5
:1002C00081833382228288279927DC01821B930B4A
:1002D000A40BB50B84839583A683B7830DC0220F2F
:1002E000331F441F551F24833583468357838281E0
:1002F000938101979383828324813581468157813D
:10030000DA01C9010197A109B1098F5F9F4FAF4F72
:10031000BF4328F30BC0918333822282EA0CFB1C7B
:100320000C1D1D1DE482F5820683178383E0808304
:10033000248135814681578157FF1AC0C901AA27F8
:1003400097FDA095BA2F81709070A070B0705695EF
:10035000479537952795822B932BA42BB52B848318
:100360009583A683B7838281938101969383828349
:10037000DF0101C0D201CD01CDB7DEB7E2E10C94BF
:10038000CE0DA0E2B0E0E7ECF1E00C94BE0D698385
:100390007A838B839C832D833E834F835887E9E048
:1003A000EE2EF12CEC0EFD1ECE010196B7010E943F
:1003B000E6058E010F5E1F4FCE010596B8010E9423
:1003C000E6058A8991E089278A8BC701B801AE01C9
:1003D000475E5F4F0E9475000E941105A096E6E0FF
:1003E0000C94DA0DA0E2B0E0E8EFF1E00C94BE0D61
:1003F00069837A838B839C832D833E834F835887C5
:10040000F9E0EF2EF12CEC0EFD1ECE010196B701A6
:100410000E94E6058E010F5E1F4FCE010596B801C2
:100420000E94E605C701B801AE01475E5F4F0E941A
:1004300075000E941105A096E6E00C94DA0DA0E28A
:10044000B0E0E5E2F2E00C94B20D69837A838B832D
:100450009C832D833E834F835887CE010196BE0136
:10046000675F7F4F0E94E605CE010596BE016F5E75
:100470007F4F0E94E6059985923088F08989823005
:10048000C8F0943019F4823051F404C0843029F457
:10049000923081F48AE591E0C6C0923049F420E0C0
:1004A0009A858A89981321E02A87CE010996BBC0D4
:1004B000823049F420E09A858A89981321E02A8BBA
:1004C000CE014196B0C02D843E844F8458886D88FB
:1004D0007E888F88988CEE24FF248701AA24BB2471
:1004E000650140E050E060E070E0E0E0F0E0C10174
:1004F00081709070892BE9F0E60CF71C081D191D1E
:100500009A01AB012A0D3B1D4C1D5D1D80E090E062
:10051000A0E0B0E0E614F7040805190520F481E036
:1005200090E0A0E0B0E0BA01A901480F591F6A1F8E
:100530007B1FAA0CBB1CCC1CDD1C97FE08C081E0F5
:1005400090E0A0E0B0E0A82AB92ACA2ADB2A3196B6
:10055000E032F10549F0660C771C881C991C569412
:10056000479437942794C3CFFA85EA892B893C892D
:100570008B859C85280F391F2E5F3F4F17C0CA01FE
:1005800081709070892B61F016950795F794E79428
:1005900080E090E0A0E0B0E8E82AF92A0A2B1B2BC3
:1005A00076956795579547952F5F3F4F77FDE7CF36
:1005B0000CC0440F551F661F771F17FD4160EE0CDE
:1005C000FF1C001F111F21503040403090E05907A0
:1005D00090E0690790E4790760F32B8F3C8FDB0193
:1005E000CA018F779070A070B07080349105A1051A
:1005F000B10561F447FD0AC0E114F10401051105DC
:1006000029F0405C5F4F6F4F7F4F40781A8EFE1786
:1006100011F081E08A8F4D8F5E8F6F8F78A383E01A
:10062000898FCE0149960E941105A096E2E10C94B3
:10063000CE0DA8E1B0E0EFE1F3E00C94BA0D6983D0
:100640007A838B839C832D833E834F835887B9E0C5
:10065000EB2EF12CEC0EFD1ECE010196B7010E948F
:10066000E6058E010F5E1F4FCE010596B8010E9470
:10067000E6052985223008F47EC03989323010F42D
:10068000B8017CC08A859A8989278A87243011F02D
:10069000223031F4231709F06EC06AE571E06EC0B4
:1006A000343039F41D861E861F86188A1C861B86E8
:1006B00004C0323021F484E08987B7015FC02B8504
:1006C0003C858B899C89281B390B3C872B87ED84C3
:1006D000FE840F851889AD88BE88CF88D88CEA142F
:1006E000FB040C051D0540F4EE0CFF1C001F111F40
:1006F000215030403C872B8720E030E040E050E044
:1007000080E090E0A0E0B0E460E070E0EA14FB0478
:100710000C051D0540F0282B392B4A2B5B2BEA18C2
:10072000FB080C091D09B695A79597958795EE0CC2
:10073000FF1C001F111F6F5F7F4F6F31710531F775
:10074000DA01C9018F779070A070B0708034910584
:10075000A105B10561F427FD0AC0E114F10401050A
:10076000110529F0205C3F4F4F4F5F4F20782D87B8
:100770003E874F87588BBE01675F7F4FCB010E943A
:1007800011056896EAE00C94D60DA8E1B0E0EBEC18
:10079000F3E00C94BE0D69837A838B839C832D8355
:1007A0003E834F83588789E0E82EF12CEC0EFD1E26
:1007B000CE010196B7010E94E6058E010F5E1F4F24
:1007C000CE010596B8010E94E6058985823040F089
:1007D0008989823028F0C701B8010E945E0601C0F5
:1007E0008FEF6896E6E00C94DA0DACE0B0E0EBEF4A
:1007F000F3E00C94C20D69837A838B839C83CE01D2
:100800000196BE016B5F7F4F0E94E6058D818230AD
:1008100061F1823050F1843021F48E81882351F1CE
:100820002EC02F81388537FD20C06E812F313105D4
:100830001CF06623F9F023C08EE190E0821B930B3D
:1008400029853A854B855C8504C056954795379533
:1008500027958A95D2F76623B1F05095409530954B
:1008600021953F4F4F4F5F4F0EC020E030E040E0FA
:1008700050E009C02FEF3FEF4FEF5FE704C020E0EB
:1008800030E040E050E8B901CA012C96E2E00C9457
:10089000DE0DA8E0B0E0EFE4F4E00C94BA0D7B01CB
:1008A0008C01611571058105910519F482E0898338
:1008B00060C083E089838EE1C82ED12CDC82CB829C
:1008C000ED82FE820F831887C801B7010E94C2041F
:1008D000FC013197F7FF3BC0222733272E1B3F0B2C
:1008E00057016801022E04C0D694C794B794A79408
:1008F0000A94D2F740E050E060E070E081E090E0E0
:10090000A0E0B0E004C0880F991FAA1FBB1F2A9562
:10091000D2F70197A109B1098E219F21A023B1230C
:100920000097A105B10521F041E050E060E070E0E2
:100930004A295B296C297D294D835E836F837887E3
:100940008EE190E08E1B9F0B9C838B8312C03097AF
:1009500081F00E2E04C0EE0CFF1C001F111F0A9424
:10096000D2F7ED82FE820F831887CE1ADF0ADC826F
:10097000CB821A82CE0101960E9411052896EAE0E8
:100980000C94D60DEF92FF920F931F937B018C0175
:1009900080E0E81680E0F80681E0080780E01807AC
:1009A00088F48FEFE816F1040105110531F028F005
:1009B00088E090E0A0E0B0E017C080E090E0A0E028
:1009C000B0E012C080E0E81680E0F80680E008079A
:1009D00081E0180728F088E190E0A0E0B0E004C0D2
:1009E00080E190E0A0E0B0E020E230E040E050E0C4
:1009F000281B390B4A0B5B0B04C016950795F7941F
:100A0000E7948A95D2F7F701EE59FE4F8081281BB3
:100A1000310941095109C9011F910F91FF90EF90D0
:100A20000895DF92EF92FF920F931F93FC01E480F1
:100A3000F58006811781D1808081823048F480E082
:100A400090E0A0E1B0E0E82AF92A0A2B1B2BA5C010
:100A5000843009F49FC0823021F4EE24FF24870102
:100A600005C0E114F1040105110519F4E0E0F0E01E
:100A700096C0628173819FEF623879070CF05BC08A
:100A800022E83FEF261B370B2A3131052CF020E0FE
:100A900030E040E050E02AC0B801A701022E04C0B7
:100AA00076956795579547950A94D2F781E090E03F
:100AB000A0E0B0E004C0880F991FAA1FBB1F2A95B1
:100AC000D2F70197A109B1098E219F21A023B1235B
:100AD0000097A105B10521F081E090E0A0E0B0E031
:100AE0009A01AB01282B392B4A2B5B2BDA01C90168
:100AF0008F779070A070B07080349105A105B1051A
:100B000039F427FF09C0205C3F4F4F4F5F4F04C0AF
:100B1000215C3F4F4F4F5F4FE0E0F0E02030A0E01E
:100B20003A07A0E04A07A0E45A0710F0E1E0F0E03D
:100B300079018A0127C06038710564F5FB01E1582D
:100B4000FF4FD801C7018F779070A070B0708034CC
:100B50009105A105B10539F4E7FE0DC080E490E0F0
:100B6000A0E0B0E004C08FE390E0A0E0B0E0E80EC9
:100B7000F91E0A1F1B1F17FF05C016950795F7944E
:100B8000E794319687E016950795F794E7948A9550
:100B9000D1F705C0EE24FF248701EFEFF0E06E2FC0
:100BA000679566276795902F9F77D794DD24D79414
:100BB0008E2F8695492F462B582F5D29B701CA01E4
:100BC0001F910F91FF90EF90DF900895FC01DB01E2
:100BD000408151812281622F6F7770E0221F22278E
:100BE000221F9381892F880F822B282F30E0991F95
:100BF0009927991F11969C93119721153105A9F5F5
:100C0000411551056105710511F482E037C082E894
:100C10009FEF13969C938E9312979A01AB0167E016
:100C2000220F331F441F551F6A95D1F783E08C9321
:100C30000DC0220F331F441F551F12968D919C919A
:100C40001397019713969C938E931297203080E010
:100C5000380780E0480780E4580758F314962D932E
:100C60003D934D935C93179708952F3F310579F489
:100C7000411551056105710519F484E08C930895BF
:100C800064FF03C081E08C9312C01C9210C02F57E8
:100C9000304013963C932E93129783E08C9387E019
:100CA000440F551F661F771F8A95D1F770641496FD
:100CB0004D935D936D937C93179708951F93DC017B
:100CC000FB019C91923008F447C08081823008F487
:100CD00043C0943051F411961C91843099F5818170
:100CE000682F70E0611B71093FC0843021F09230A1
:100CF00031F48230B9F18181882389F12DC01196B8
:100D00001C9111978230F1F081811817D9F4129655
:100D10002D913C911397828193818217930794F0D0
:100D200028173907BCF014968D919D910D90BC91B8
:100D3000A02D2481358146815781281739074A071C
:100D40005B0718F4112341F00AC082179307A40728
:100D5000B50740F4112319F061E070E005C06FEFB2
:100D60007FEF02C060E070E0CB011F910895DF9338
:100D7000CF93CDB7DEB7EAE2F0E088E98083E0E424
:100D8000F0E086E88083E9E2F0E083E38083E0E45A
:100D9000F0E01082CF91DF910895DF93CF930F920F
:100DA000CDB7DEB78983EBE2F0E08081882F90E059
:100DB000807290700097B9F3ECE2F0E08981808353
:100DC0000F90CF91DF910895DF93CF93CDB7DEB72A
:100DD000EBE2F0E080818823DCF7ECE2F0E0808158
:100DE000CF91DF910895DF93CF9300D000D0CDB79E
:100DF000DEB79C838B831A8219820FC029813A81C6
:100E00008B819C81FC01E20FF31F80810E94CD0643
:100E100089819A8101969A83898329813A818B817C
:100E20009C81FC01E20FF31F8081882339F70F902A
:100E30000F900F900F90CF91DF910895DF93CF9394
:100E4000CDB7DEB768970FB6F894DEBF0FBECDBF43
:100E50006D8B7E8B8F8B988F8D899E89AF89B88D96
:100E6000BC01CD019E012F5F3F4FA9012AE030E078
:100E70000E94620FCE0101960E94F30668960FB69B
:100E8000F894DEBF0FBECDBFCF91DF910895DF9301
:100E9000CF93CDB7DEB766970FB6F894DEBF0FBE1F
:100EA000CDBF9E8B8D8B8D899E899E012F5F3F4F7D
:100EB000B9014AE050E00E94410FCE0101960E9424
:100EC000F30666960FB6F894DEBF0FBECDBFCF9186
:100ED000DF910895DF93CF93CDB7DEB7C055D040F3
:100EE0000FB6F894DEBF0FBECDBF19820E94B80CBA
:100EF0000E94D70C78940E94B70680E690E00E948A
:100F0000F3060E94110D8823B1F00E94EA0C8A8337
:100F10002091F402822F90E0FC01EE59FD4F8A816E
:100F20008083822F8F5F8093F4028091F402843655
:100F300011F40E940B0882E692E025E730E0B90147
:100F40000E94270F009731F08BE790E00E94F30694
:100F50000E940B0882E692E027E830E0B9010E9487
:100F6000270F009771F2CE0103960E941C088DE8AE
:100F700090E00E94F306CE0103960E94F3068DEAEC
:100F800090E00E94F306CE01039609960E94F306B4
:100F90008DEC90E00E94F306CE01039648960E94E5
:100FA000F306CE0103969E01265D3F4FB9010E94D4
:100FB000E708CE0103969E01265D3F4FB9010E94CE
:100FC0005D09CE0103969E01265D3F4FB9010E9447
:100FD000820A8DEE90E00E94F306CE018A960E946E
:100FE000F3068FE091E00E94F306CE018A960996FF
:100FF0000E94F3068FE291E00E94F306CE018A96EA
:1010000048960E94F3068FE491E00E94F30619824D
:101010000E940B0876CFDF93CF93CDB7DEB7109247
:10102000F40282E692E060E070E044E650E00E9464
:10103000200FCF91DF910895DF93CF9300D000D0A0
:101040000F92CDB7DEB79D838C831B821A821982E3
:101050008C819D8160E070E049E050E00E94200FAB
:101060008C819D81099660E070E04FE050E00E9425
:10107000200F8C819D81489660E070E04FE050E049
:101080000E94200F91C08B81882F90E0FC01EE59C7
:10109000FD4F80818C3209F084C089818F5F898304
:1010A0008981813071F51A8229C08A81482F50E0E8
:1010B0008B818F5F8B838B81882F90E0FC01EE59B1
:1010C000FD4F20818C819D81FC01E40FF51F208361
:1010D0008A81813019F08A81843069F48A818F5F36
:1010E0008A838A81282F30E08C819D81FC01E20F68
:1010F000F31F8AE380838A818F5F8A838A818830A5
:10110000A0F28981823029F51A8220C08B818F5FFD
:101110008B838B81882F90E0FC01EE59FD4F8081FD
:101120008C32B9F08A81282F30E08B81882F90E0B3
:10113000FC01EE59FD4F40818C819D81820F931FF0
:10114000FC01399640838A818F5F8A838A818E3041
:10115000E8F28981833029F51A8220C08B818F5F64
:101160008B838B81882F90E0FC01EE59FD4F8081AD
:101170008C32B9F08A81282F30E08B81882F90E063
:10118000FC01EE59FD4F40818C819D81820F931FA0
:10119000FC01789640838A818F5F8A838A818E30B2
:1011A000E8F28B818F5F8B838B81882F90E0FC012D
:1011B000EE59FD4F8081882309F065CF80E00F90C4
:1011C0000F900F900F900F90CF91DF910895DF93C4
:1011D000CF9300D000D000D0CDB7DEB79C838B83F7
:1011E0007E836D831A828D819E8160E070E049E08C
:1011F00050E00E94200FEB81FC8180818053898325
:101200008981882F90E09C01220F331FC901880F2C
:10121000991F880F991F820F931F8983EB81FC818F
:1012200091818981890F805389838981863111F465
:10123000198209C08981873119F481E0898303C04B
:1012400089818E5F898389819AE0692F0E94A60D2A
:10125000805DED81FE81808389819AE0692F0E9403
:10126000A60D892F805DED81FE81818382E08A83D6
:1012700017C08A81482F50E08A81282F30E08B8167
:101280009C81FC01E20FF31F808189838D819E8107
:10129000FC01E40FF51F898180838A818F5F8A8337
:1012A0008A81883030F381E026960FB6F894DEBF4D
:1012B0000FBECDBFCF91DF910895DF93CF93CDB710
:1012C000DEB7AA970FB6F894DEBF0FBECDBF98A7C2
:1012D0008FA37AA769A71B861A8619868AE0FE0162
:1012E0003E96DF01982F1D929A95E9F78FE0FE0157
:1012F0007896DF01982F1D929A95E9F71D821E823C
:101300001F82188680E090E0A0E0B0E089839A8395
:10131000AB83BC8389A59AA5099660E070E04FE095
:1013200050E00E94200F1B861A8628C08B85282F2C
:1013300030E08FA198A5820F931FFC013996808120
:101340008E3219F48B858F5F8B878A85482F50E00A
:101350008B85282F30E08FA198A5820F931FFC0169
:1013600039962081CE010E96FC01E40FF51F2083F3
:101370008B858F5F8B878A858F5F8A878B85282FE8
:1013800030E08FA198A5820F931FFC0139968081D0
:10139000882361F68E85805389878985882F90E020
:1013A0009C01220F331FC901880F991F880F991FB5
:1013B000820F931F89879F858985890F805389872D
:1013C000CE010E9602969E01245F3F4FB9014AE07E
:1013D00050E00E94E90DDC01CB018D839E83AF8339
:1013E000B8876D817E818F8198850E944904DC01D8
:1013F000CB01BC01CD0120E03CE742E159E40E9471
:101400001903DC01CB0189839A83AB83BC83898573
:10141000882F90E0A0E0B0E0BC01CD010E9449041B
:101420009B01AC0169817A818B819C810E94F201D0
:10143000DC01CB0189839A83AB83BC8369817A8188
:101440008B819C8120E034E244E759E40E941F0232
:10145000DC01CB0189839A83AB83BC8369817A8168
:101460008B819C810E944900DC01CB019E01285E9A
:101470003F4FBC01CD01A9012AE030E00E94620F7C
:101480001A861B862AC08A85482F50E08B85282F14
:1014900030E0CE014896FC01E20FF31F208189A5C0
:1014A0009AA5840F951FFC01399620838A85813087
:1014B00071F48A858F5F8A878A85282F30E089A515
:1014C0009AA5820F931FFC0139968EE280838A854C
:1014D0008F5F8A878B858F5F8B878B85282F30E086
:1014E000CE014896FC01E20FF31F8081882359F654
:1014F00081E0AA960FB6F894DEBF0FBECDBFCF91A4
:10150000DF910895DF93CF93CDB7DEB7AA970FB6DB
:10151000F894DEBF0FBECDBF98A78FA37AA769A7A7
:101520001B861A8619868AE0FE013E96DF01982FF7
:101530001D929A95E9F78FE0FE017896DF01982FCA
:101540001D929A95E9F71D821E821F82188680E0FF
:1015500090E0A0E0B0E089839A83AB83BC8389A547
:101560009AA5489660E070E04FE050E00E94200F9E
:101570001B861A8628C08B85282F30E08FA198A55E
:10158000820F931FFC01789680818E3219F48B852F
:101590008F5F8B878A85482F50E08B85282F30E01E
:1015A0008FA198A5820F931FFC0178962081CE0110
:1015B0000E96FC01E40FF51F20838B858F5F8B87D0
:1015C0008A858F5F8A878B85282F30E08FA198A529
:1015D000820F931FFC0178968081882361F68F85A6
:1015E000805389878985882F90E09C01220F331FC3
:1015F000C901880F991F880F991F820F931F898730
:1016000098898985890F80538987CE010E96039624
:101610009E01245F3F4FB9014AE050E00E94E90D6E
:10162000DC01CB018D839E83AF83B8876D817E8182
:101630008F8198850E944904DC01CB01BC01CD015A
:1016400020E03CE742E159E40E941903DC01CB01B0
:1016500089839A83AB83BC838985882F90E0A0E03F
:10166000B0E0BC01CD010E9449049B01AC0169813D
:101670007A818B819C810E94F201DC01CB018983FC
:101680009A83AB83BC8369817A818B819C8120E0C2
:1016900034E244E759E40E941F02DC01CB01898354
:1016A0009A83AB83BC8369817A818B819C810E9400
:1016B0004900DC01CB019E01285E3F4FBC01CD01FA
:1016C000A9012AE030E00E94620F1A861B862AC018
:1016D0008A85482F50E08B85282F30E0CE01489630
:1016E000FC01E20FF31F208189A59AA5840F951FA5
:1016F000FC01789620838A85813071F48A858F5F1A
:101700008A878A85282F30E089A59AA5820F931FA2
:10171000FC0178968EE280838A858F5F8A878B852D
:101720008F5F8B878B85282F30E0CE014896FC0198
:10173000E20FF31F8081882359F681E0AA960FB645
:10174000F894DEBF0FBECDBFCF91DF9108951F92F9
:101750000F920FB60F9211242F938F939F93AF93F5
:10176000BF93EF93FF93DF93CF9300D00F92CDB74A
:10177000DEB78091EF028130D1F58091F00289834C
:101780008981815089838981882371F58091F20252
:101790009091F30281709070882341F0A8E3B0E04B
:1017A000E8E3F0E0808182608C9307C0A8E3B0E0BA
:1017B000E8E3F0E080818D7F8C938091F20290913C
:1017C000F302969587959093F3028093F20283E05B
:1017D00089838091F10281508093F1028091F1021E
:1017E000882311F41092EF0289818093F002809196
:1017F000ED02882309F072C08091CA02882329F182
:101800008091C80281508093C8028091C8028823C9
:1018100009F064C01092CA021092EE028091EB02AD
:10182000882F90E02091C602FC01E553FD4F2083F4
:101830008091EB028F5F8093EB028091EB0280320C
:1018400008F44CC01092EB0249C08091EE0288234C
:10185000B9F4E6E3F0E0808181708B838B8188238B
:10186000E9F581E08093EE021092C60284E0809355
:10187000C80288E08093C70281E08093C9022EC02D
:101880008091C802898389818150898389818823D5
:1018900011F583E08983E6E3F0E0808181708A833B
:1018A0008A81882339F08091C6029091C902892BE0
:1018B0008093C6028091C902880F8093C9028091EB
:1018C000C70281508093C7028091C702882319F410
:1018D00081E08093CA0289818093C8020F900F90A3
:1018E0000F90CF91DF91FF91EF91BF91AF919F91B9
:1018F0008F912F910F900FBE0F901F901895DF932F
:10190000CF93CDB7DEB7A7E3B0E0E7E3F0E08081A7
:1019100082608C93A7E3B0E0E7E3F0E080818E7F04
:101920008C93CF91DF910895DF93CF930F92CDB732
:10193000DEB7EFE5F0E080818983F894ECE5F0E034
:1019400081E28083E3E5F0E08AE08083A9E5B0E00E
:10195000E9E5F0E0808182608C93E2E5F0E01082BE
:10196000EFE5F0E0898180830F90CF91DF910895BA
:10197000DF93CF93CDB7DEB71092EF021092EE0255
:101980001092ED02A8E3B0E0E8E3F0E0808182602D
:101990008C930E947F0C0E94940CCF91DF9108954C
:1019A000DF93CF93CDB7DEB7CF91DF910895DF936B
:1019B000CF93CDB7DEB71092ED02CF91DF910895AE
:1019C000DF93CF93CDB7DEB781E08093ED02CF9167
:1019D000DF910895DF93CF930F92CDB7DEB702C0AA
:1019E0000E94D00C9091EC028091EB029817C1F309
:1019F0008091EC02882F90E0FC01E553FD4F80813F
:101A000089838091EC028F5F8093EC028091EC02DD
:101A1000803210F01092EC0289810F90CF91DF910B
:101A20000895DF93CF930F92CDB7DEB79091EB027D
:101A30008091EC021982981711F081E089838981E5
:101A40000F90CF91DF910895DF93CF93CDB7DEB79D
:101A50001092EB021092EC02CF91DF910895DF9388
:101A6000CF930F92CDB7DEB78091EF02198281300C
:101A700011F481E0898389810F90CF91DF910895DE
:101A8000DF93CF930F92CDB7DEB789838091EF02BA
:101A90008130E1F383E08093F0028AE08093F102E9
:101AA0008981882F90E0880F991F92609093F302AC
:101AB0008093F20281E08093EF020F90CF91DF914B
:101AC0000895DF93CF9300D0CDB7DEB79A83898393
:101AD0000BC0E981FA81208189819A8101969A83DC
:101AE0008983822F0E94400DE981FA8180818823B9
:101AF00081F70F900F90CF91DF910895DF93CF93EF
:101B000000D000D000D0CDB7DEB79E838D8303C058
:101B10008C810E94400D8D819E819B838A838D8163
:101B20009E8101969E838D83EA81FB8184918983C6
:101B300089818C838C81882359F726960FB6F89477
:101B4000DEBF0FBECDBFCF91DF910895991B79E025
:101B500004C0991F961708F0961B881F7A95C9F73D
:101B6000809508952F923F924F925F926F927F924D
:101B70008F929F92AF92BF92CF92DF92EF92FF929D
:101B80000F931F93CF93DF93CDB7DEB7CA1BDB0B49
:101B90000FB6F894DEBF0FBECDBF09942A883988EE
:101BA00048885F846E847D848C849B84AA84B984F5
:101BB000C884DF80EE80FD800C811B81AA81B98101
:101BC000CE0FD11D0FB6F894DEBF0FBECDBFED0115
:101BD00008952F923F925F926F927F928F929F9281
:101BE000AF92BF92CF92DF92EF92FF920F931F932B
:101BF000CF93DF938C011B01EA016115710519F088
:101C0000FB0191838083209749F0CE01029783974F
:101C100028F020E030E040E050E0F6C0F801A1906C
:101C20008F018A2D90E00E94180F892BB9F7FDE2F1
:101C3000AF1631F4F801A1908F015524539407C0D9
:101C4000FBE2AF1619F4F801A1908F0155242097FB
:101C500019F0C031D105C1F4F0E3AF1679F4F80101
:101C60008081883711F0883549F4F801A1800E5F32
:101C70001F4FF2E05F2AC0E1D0E006C0209721F4B8
:101C800080E3A816E9F427C0C830D10531F1C93086
:101C9000D10524F4C230D10531F50CC0CA30D105CC
:101CA00089F0C031D105F9F4C12CD12CE12CB8E078
:101CB000FB2E28C0C12CD12CE12CA0E4FA2E22C08E
:101CC000CAE0D0E0FCECCF2EFCECDF2EFCECEF2EDB
:101CD000FCE0FF2E17C0C8E0D0E0C12CD12CE12CD5
:101CE000E0E1FE2E0FC09E01442737FD4095542FA2
:101CF00060E070E080E090E80E94CD0FC901DA0159
:101D00006C017D0120E030E040E050E060E03E0109
:101D1000882477FC8094982C70EDB72EBA0CE9E0FB
:101D2000EB1570F48A2D81548A3118F499ECB92E90
:101D300006C08A2D81568A3150F589EAB82EBA0C30
:101D40008B2D90E08C179D0714F56F3FE1F0C216C4
:101D5000D306E406F506B0F0CA01B901A401930167
:101D60000E949A0F9B01AC012B0D311D411D511D8D
:101D70002130F0E03F07F0E04F07F0E85F0710F494
:101D800061E001C06FEFF801A1908F01C5CF211470
:101D9000310481F0662331F001501040F1011183CC
:101DA000008308C051FE1AC002501040F101118397
:101DB000008314C067FF12C050FC05C02FEF3FEF37
:101DC0004FEF5FE704C020E030E040E050E882E2FF
:101DD00090E09093F6028093F50216C050FE08C082
:101DE00050954095309521953F4F4F4F5F4F0CC018
:101DF00057FF0AC082E290E09093F6028093F502CA
:101E00002FEF3FEF4FEF5FE7B901CA01DF91CF91AD
:101E10001F910F91FF90EF90DF90CF90BF90AF9008
:101E20009F908F907F906F905F903F902F9008953C
:101E300091116DC0803219F089508550D0F7089506
:101E4000DC0101C06D9341505040E0F70895FB0163
:101E500051915523A9F0BF01DC014D914517411166
:101E6000E1F759F4CD010190002049F04D91401562
:101E70004111C9F3FB014111EFCF81E090E00197DF
:101E80000895FB019F01E8944230C4F04532B4F458
:101E90004A3029F497FB1EF4909581959F4F642F4B
:101EA00077270E94B90F805D8A330CF0895D81939A
:101EB000CB010097A1F716F45DE251931082C9019E
:101EC0000C948A0FFA01CF93FF93EF932230CCF05A
:101ED0002532BCF4C22F2C2F332744275527FF93DC
:101EE000EF930E94CD0FEF91FF91605D6A330CF08C
:101EF000695D6193B901CA016050704080409040B3
:101F000051F710828F919F91CF910C948A0F99274E
:101F100088270895DC01FC01672F71917723E1F791
:101F2000329704C07C916D9370836291AE17BF07A6
:101F3000C8F30895629FD001739FF001829FE00D66
:101F4000F11D649FE00DF11D929FF00D839FF00D38
:101F5000749FF00D659FF00D9927729FB00DE11DE4
:101F6000F91F639FB00DE11DF91FBD01CF011124C1
:101F70000895AA1BBB1B51E107C0AA1FBB1FA617D0
:101F8000B70710F0A61BB70B881F991F5A95A9F722
:101F900080959095BC01CD010895A1E21A2EAA1B4F
:101FA000BB1BFD010DC0AA1FBB1FEE1FFF1FA21709
:101FB000B307E407F50720F0A21BB30BE40BF50B06
:101FC000661F771F881F991F1A9469F7609570958F
:101FD000809590959B01AC01BD01CF010895F894C7
:021FE000FFCF31
:101FE20068692068656C6C6F2066726F6D20686529
:101FF20072650D0A004750474741000D0A2073746D
:10200200617274200D0A004750475341000D0A20A7
:10201200474D542054696D65207A6F6E65202020EB
:102022002020202020202020203A2020000D0A20DD
:102032006C6F6E67697475646520696E204E4D45DC
:102042004120466F726D6174203A2020000D0A20F3
:102052006C6174697475646520696E204E4D4541EA
:1020620020466F726D617420203A2020000D0A0D07
:102072000A2045677970742054696D65207A6F6E05
:1020820065202020202020202020203A2020000D22
:102092000A206C6F6E67697475646520696E204DE5
:1020A20041505320202020202020203A2020000DC3
:1020B2000A206C6174697475646520696E204D41F3
:1020C20050532020202020202020203A2020000DC4
:1020D2000A20456E64200D0A200000000000000066
:1020E20000000001020203030303040404040404C5
:1020F2000404050505050505050505050505050590
:10210200050506060606060606060606060606066F
:10211200060606060606060606060606060606065D
:10212200060607070707070707070707070707073F
:10213200070707070707070707070707070707072D
:10214200070707070707070707070707070707071D
:10215200070707070707070707070707070707070D
:1021620007070808080808080808080808080808EF
:1021720008080808080808080808080808080808DD
:1021820008080808080808080808080808080808CD
:1021920008080808080808080808080808080808BD
:1021A20008080808080808080808080808080808AD
:1021B200080808080808080808080808080808089D
:1021C200080808080808080808080808080808088D
:1021D200080808080808080808080808080808087D
:0221E2000808EB
:00000001FF
